{
  "_format": "hh-sol-artifact-1",
  "contractName": "Farmon",
  "sourceName": "contracts/Farmon.sol",
  "abi": [
    {
      "inputs": [
        {
          "internalType": "string",
          "name": "baseUri",
          "type": "string"
        },
        {
          "internalType": "uint256",
          "name": "category",
          "type": "uint256"
        },
        {
          "internalType": "uint256",
          "name": "freeMintDuration",
          "type": "uint256"
        }
      ],
      "stateMutability": "nonpayable",
      "type": "constructor"
    },
    {
      "inputs": [],
      "name": "CannotMintDuringFreeMintPeriod",
      "type": "error"
    },
    {
      "inputs": [
        {
          "internalType": "address",
          "name": "sender",
          "type": "address"
        },
        {
          "internalType": "uint256",
          "name": "tokenId",
          "type": "uint256"
        },
        {
          "internalType": "address",
          "name": "owner",
          "type": "address"
        }
      ],
      "name": "ERC721IncorrectOwner",
      "type": "error"
    },
    {
      "inputs": [
        {
          "internalType": "address",
          "name": "operator",
          "type": "address"
        },
        {
          "internalType": "uint256",
          "name": "tokenId",
          "type": "uint256"
        }
      ],
      "name": "ERC721InsufficientApproval",
      "type": "error"
    },
    {
      "inputs": [
        {
          "internalType": "address",
          "name": "approver",
          "type": "address"
        }
      ],
      "name": "ERC721InvalidApprover",
      "type": "error"
    },
    {
      "inputs": [
        {
          "internalType": "address",
          "name": "operator",
          "type": "address"
        }
      ],
      "name": "ERC721InvalidOperator",
      "type": "error"
    },
    {
      "inputs": [
        {
          "internalType": "address",
          "name": "owner",
          "type": "address"
        }
      ],
      "name": "ERC721InvalidOwner",
      "type": "error"
    },
    {
      "inputs": [
        {
          "internalType": "address",
          "name": "receiver",
          "type": "address"
        }
      ],
      "name": "ERC721InvalidReceiver",
      "type": "error"
    },
    {
      "inputs": [
        {
          "internalType": "address",
          "name": "sender",
          "type": "address"
        }
      ],
      "name": "ERC721InvalidSender",
      "type": "error"
    },
    {
      "inputs": [
        {
          "internalType": "uint256",
          "name": "tokenId",
          "type": "uint256"
        }
      ],
      "name": "ERC721NonexistentToken",
      "type": "error"
    },
    {
      "inputs": [],
      "name": "EthSentDuringFreeMint",
      "type": "error"
    },
    {
      "inputs": [
        {
          "internalType": "uint256",
          "name": "required",
          "type": "uint256"
        }
      ],
      "name": "InsufficientEthForSaleMint",
      "type": "error"
    },
    {
      "inputs": [
        {
          "internalType": "address",
          "name": "owner",
          "type": "address"
        }
      ],
      "name": "OwnableInvalidOwner",
      "type": "error"
    },
    {
      "inputs": [
        {
          "internalType": "address",
          "name": "account",
          "type": "address"
        }
      ],
      "name": "OwnableUnauthorizedAccount",
      "type": "error"
    },
    {
      "anonymous": false,
      "inputs": [
        {
          "indexed": true,
          "internalType": "address",
          "name": "owner",
          "type": "address"
        },
        {
          "indexed": true,
          "internalType": "address",
          "name": "approved",
          "type": "address"
        },
        {
          "indexed": true,
          "internalType": "uint256",
          "name": "tokenId",
          "type": "uint256"
        }
      ],
      "name": "Approval",
      "type": "event"
    },
    {
      "anonymous": false,
      "inputs": [
        {
          "indexed": true,
          "internalType": "address",
          "name": "owner",
          "type": "address"
        },
        {
          "indexed": true,
          "internalType": "address",
          "name": "operator",
          "type": "address"
        },
        {
          "indexed": false,
          "internalType": "bool",
          "name": "approved",
          "type": "bool"
        }
      ],
      "name": "ApprovalForAll",
      "type": "event"
    },
    {
      "anonymous": false,
      "inputs": [
        {
          "indexed": false,
          "internalType": "uint256",
          "name": "_fromTokenId",
          "type": "uint256"
        },
        {
          "indexed": false,
          "internalType": "uint256",
          "name": "_toTokenId",
          "type": "uint256"
        }
      ],
      "name": "BatchMetadataUpdate",
      "type": "event"
    },
    {
      "anonymous": false,
      "inputs": [
        {
          "indexed": false,
          "internalType": "uint256",
          "name": "_tokenId",
          "type": "uint256"
        }
      ],
      "name": "MetadataUpdate",
      "type": "event"
    },
    {
      "anonymous": false,
      "inputs": [
        {
          "indexed": true,
          "internalType": "address",
          "name": "previousOwner",
          "type": "address"
        },
        {
          "indexed": true,
          "internalType": "address",
          "name": "newOwner",
          "type": "address"
        }
      ],
      "name": "OwnershipTransferred",
      "type": "event"
    },
    {
      "anonymous": false,
      "inputs": [
        {
          "indexed": true,
          "internalType": "address",
          "name": "from",
          "type": "address"
        },
        {
          "indexed": true,
          "internalType": "address",
          "name": "to",
          "type": "address"
        },
        {
          "indexed": true,
          "internalType": "uint256",
          "name": "tokenId",
          "type": "uint256"
        }
      ],
      "name": "Transfer",
      "type": "event"
    },
    {
      "inputs": [
        {
          "internalType": "address",
          "name": "to",
          "type": "address"
        },
        {
          "internalType": "uint256",
          "name": "tokenId",
          "type": "uint256"
        }
      ],
      "name": "approve",
      "outputs": [],
      "stateMutability": "nonpayable",
      "type": "function"
    },
    {
      "inputs": [
        {
          "internalType": "address",
          "name": "owner",
          "type": "address"
        }
      ],
      "name": "balanceOf",
      "outputs": [
        {
          "internalType": "uint256",
          "name": "",
          "type": "uint256"
        }
      ],
      "stateMutability": "view",
      "type": "function"
    },
    {
      "inputs": [
        {
          "internalType": "uint256",
          "name": "tokenId",
          "type": "uint256"
        }
      ],
      "name": "burn",
      "outputs": [],
      "stateMutability": "nonpayable",
      "type": "function"
    },
    {
      "inputs": [],
      "name": "freeMintEndTime",
      "outputs": [
        {
          "internalType": "uint256",
          "name": "",
          "type": "uint256"
        }
      ],
      "stateMutability": "view",
      "type": "function"
    },
    {
      "inputs": [
        {
          "internalType": "uint256",
          "name": "tokenId",
          "type": "uint256"
        }
      ],
      "name": "getApproved",
      "outputs": [
        {
          "internalType": "address",
          "name": "",
          "type": "address"
        }
      ],
      "stateMutability": "view",
      "type": "function"
    },
    {
      "inputs": [
        {
          "internalType": "address",
          "name": "owner",
          "type": "address"
        },
        {
          "internalType": "address",
          "name": "operator",
          "type": "address"
        }
      ],
      "name": "isApprovedForAll",
      "outputs": [
        {
          "internalType": "bool",
          "name": "",
          "type": "bool"
        }
      ],
      "stateMutability": "view",
      "type": "function"
    },
    {
      "inputs": [],
      "name": "name",
      "outputs": [
        {
          "internalType": "string",
          "name": "",
          "type": "string"
        }
      ],
      "stateMutability": "view",
      "type": "function"
    },
    {
      "inputs": [],
      "name": "owner",
      "outputs": [
        {
          "internalType": "address",
          "name": "",
          "type": "address"
        }
      ],
      "stateMutability": "view",
      "type": "function"
    },
    {
      "inputs": [
        {
          "internalType": "uint256",
          "name": "tokenId",
          "type": "uint256"
        }
      ],
      "name": "ownerOf",
      "outputs": [
        {
          "internalType": "address",
          "name": "",
          "type": "address"
        }
      ],
      "stateMutability": "view",
      "type": "function"
    },
    {
      "inputs": [],
      "name": "renounceOwnership",
      "outputs": [],
      "stateMutability": "nonpayable",
      "type": "function"
    },
    {
      "inputs": [],
      "name": "safeMint",
      "outputs": [],
      "stateMutability": "payable",
      "type": "function"
    },
    {
      "inputs": [
        {
          "internalType": "address",
          "name": "from",
          "type": "address"
        },
        {
          "internalType": "address",
          "name": "to",
          "type": "address"
        },
        {
          "internalType": "uint256",
          "name": "tokenId",
          "type": "uint256"
        }
      ],
      "name": "safeTransferFrom",
      "outputs": [],
      "stateMutability": "nonpayable",
      "type": "function"
    },
    {
      "inputs": [
        {
          "internalType": "address",
          "name": "from",
          "type": "address"
        },
        {
          "internalType": "address",
          "name": "to",
          "type": "address"
        },
        {
          "internalType": "uint256",
          "name": "tokenId",
          "type": "uint256"
        },
        {
          "internalType": "bytes",
          "name": "data",
          "type": "bytes"
        }
      ],
      "name": "safeTransferFrom",
      "outputs": [],
      "stateMutability": "nonpayable",
      "type": "function"
    },
    {
      "inputs": [
        {
          "internalType": "address",
          "name": "operator",
          "type": "address"
        },
        {
          "internalType": "bool",
          "name": "approved",
          "type": "bool"
        }
      ],
      "name": "setApprovalForAll",
      "outputs": [],
      "stateMutability": "nonpayable",
      "type": "function"
    },
    {
      "inputs": [
        {
          "internalType": "string",
          "name": "baseUri",
          "type": "string"
        }
      ],
      "name": "setBaseUri",
      "outputs": [],
      "stateMutability": "nonpayable",
      "type": "function"
    },
    {
      "inputs": [
        {
          "internalType": "bytes4",
          "name": "interfaceId",
          "type": "bytes4"
        }
      ],
      "name": "supportsInterface",
      "outputs": [
        {
          "internalType": "bool",
          "name": "",
          "type": "bool"
        }
      ],
      "stateMutability": "view",
      "type": "function"
    },
    {
      "inputs": [],
      "name": "symbol",
      "outputs": [
        {
          "internalType": "string",
          "name": "",
          "type": "string"
        }
      ],
      "stateMutability": "view",
      "type": "function"
    },
    {
      "inputs": [
        {
          "internalType": "uint256",
          "name": "tokenId",
          "type": "uint256"
        }
      ],
      "name": "tokenURI",
      "outputs": [
        {
          "internalType": "string",
          "name": "",
          "type": "string"
        }
      ],
      "stateMutability": "view",
      "type": "function"
    },
    {
      "inputs": [
        {
          "internalType": "address",
          "name": "from",
          "type": "address"
        },
        {
          "internalType": "address",
          "name": "to",
          "type": "address"
        },
        {
          "internalType": "uint256",
          "name": "tokenId",
          "type": "uint256"
        }
      ],
      "name": "transferFrom",
      "outputs": [],
      "stateMutability": "nonpayable",
      "type": "function"
    },
    {
      "inputs": [
        {
          "internalType": "address",
          "name": "newOwner",
          "type": "address"
        }
      ],
      "name": "transferOwnership",
      "outputs": [],
      "stateMutability": "nonpayable",
      "type": "function"
    }
  ],
  "bytecode": "0x60806040523480156200001157600080fd5b5060405162001da738038062001da7833981016040819052620000349162000164565b33604051806040016040528060068152602001652330b936b7b760d11b815250604051806040016040528060048152602001634641524d60e01b8152508160009081620000829190620002dc565b506001620000918282620002dc565b5050506001600160a01b038116620000c357604051631e4fbdf760e01b81526000600482015260240160405180910390fd5b620000ce81620000fc565b50600a620000dd8482620002dc565b506009829055620000ef8142620003a8565b600b5550620003d0915050565b600780546001600160a01b038381166001600160a01b0319831681179093556040519116919082907f8be0079c531659141344cd1fd0a4f28419497f9722a3daafe3b4186f6b6457e090600090a35050565b634e487b7160e01b600052604160045260246000fd5b6000806000606084860312156200017a57600080fd5b83516001600160401b03808211156200019257600080fd5b818601915086601f830112620001a757600080fd5b815181811115620001bc57620001bc6200014e565b604051601f8201601f19908116603f01168101908382118183101715620001e757620001e76200014e565b816040528281526020935089848487010111156200020457600080fd5b600091505b8282101562000228578482018401518183018501529083019062000209565b600092810184019290925250908601516040909601519097959650949350505050565b600181811c908216806200026057607f821691505b6020821081036200028157634e487b7160e01b600052602260045260246000fd5b50919050565b601f821115620002d7576000816000526020600020601f850160051c81016020861015620002b25750805b601f850160051c820191505b81811015620002d357828155600101620002be565b5050505b505050565b81516001600160401b03811115620002f857620002f86200014e565b62000310816200030984546200024b565b8462000287565b602080601f8311600181146200034857600084156200032f5750858301515b600019600386901b1c1916600185901b178555620002d3565b600085815260208120601f198616915b82811015620003795788860151825594840194600190910190840162000358565b5085821015620003985787850151600019600388901b60f8161c191681555b5050505050600190811b01905550565b80820180821115620003ca57634e487b7160e01b600052601160045260246000fd5b92915050565b6119c780620003e06000396000f3fe60806040526004361061011f5760003560e01c806370a08231116100a0578063a22cb46511610064578063a22cb46514610309578063b88d4fde14610329578063c87b56dd14610349578063e985e9c514610369578063f2fde38b1461038957600080fd5b806370a0823114610281578063715018a6146102a15780638da5cb5b146102b657806395d89b41146102d4578063a0bcfc7f146102e957600080fd5b806342842e0e116100e757806342842e0e146101f557806342966c68146102155780634a90604c146102355780636352211e146102595780636871ee401461027957600080fd5b806301ffc9a71461012457806306fdde0314610159578063081812fc1461017b578063095ea7b3146101b357806323b872dd146101d5575b600080fd5b34801561013057600080fd5b5061014461013f3660046112a0565b6103a9565b60405190151581526020015b60405180910390f35b34801561016557600080fd5b5061016e6103ba565b604051610150919061130d565b34801561018757600080fd5b5061019b610196366004611320565b61044c565b6040516001600160a01b039091168152602001610150565b3480156101bf57600080fd5b506101d36101ce366004611355565b610475565b005b3480156101e157600080fd5b506101d36101f036600461137f565b610484565b34801561020157600080fd5b506101d361021036600461137f565b610514565b34801561022157600080fd5b506101d3610230366004611320565b610534565b34801561024157600080fd5b5061024b600b5481565b604051908152602001610150565b34801561026557600080fd5b5061019b610274366004611320565b610540565b6101d361054b565b34801561028d57600080fd5b5061024b61029c3660046113bb565b610673565b3480156102ad57600080fd5b506101d36106bb565b3480156102c257600080fd5b506007546001600160a01b031661019b565b3480156102e057600080fd5b5061016e6106cf565b3480156102f557600080fd5b506101d3610304366004611462565b6106de565b34801561031557600080fd5b506101d36103243660046114ab565b6106f2565b34801561033557600080fd5b506101d36103443660046114e7565b6106fd565b34801561035557600080fd5b5061016e610364366004611320565b610714565b34801561037557600080fd5b50610144610384366004611563565b61071f565b34801561039557600080fd5b506101d36103a43660046113bb565b61074d565b60006103b48261078b565b92915050565b6060600080546103c990611596565b80601f01602080910402602001604051908101604052809291908181526020018280546103f590611596565b80156104425780601f1061041757610100808354040283529160200191610442565b820191906000526020600020905b81548152906001019060200180831161042557829003601f168201915b5050505050905090565b6000610457826107b0565b506000828152600460205260409020546001600160a01b03166103b4565b6104808282336107e9565b5050565b6001600160a01b0382166104b357604051633250574960e11b8152600060048201526024015b60405180910390fd5b60006104c08383336107f6565b9050836001600160a01b0316816001600160a01b03161461050e576040516364283d7b60e01b81526001600160a01b03808616600483015260248201849052821660448201526064016104aa565b50505050565b61052f838383604051806020016040528060008152506106fd565b505050565b610480600082336107f6565b60006103b4826107b0565b600b5442111580156105655750600061056333610673565b115b15610583576040516303e6d65b60e01b815260040160405180910390fd5b600b5442116105b05734156105ab576040516306f3ec0960e01b815260040160405180910390fd5b6105de565b662386f26fc10000348111156105dc57604051637423232160e01b8152600481018290526024016104aa565b505b60088054600091826105ef836115e6565b9190505590506000600954826106059190611615565b9050600061063e610615846108ef565b600a8460405160200161062a93929190611629565b604051602081830303815290604052610982565b60405160200161064e9190611735565b60405160208183030381529060405290506106698382610ae2565b61052f3384610b32565b60006001600160a01b03821661069f576040516322718ad960e21b8152600060048201526024016104aa565b506001600160a01b031660009081526003602052604090205490565b6106c3610b4c565b6106cd6000610b79565b565b6060600180546103c990611596565b6106e6610b4c565b600a61048082826117ca565b610480338383610bcb565b610708848484610484565b61050e84848484610c6a565b60606103b482610d93565b6001600160a01b03918216600090815260056020908152604080832093909416825291909152205460ff1690565b610755610b4c565b6001600160a01b03811661077f57604051631e4fbdf760e01b8152600060048201526024016104aa565b61078881610b79565b50565b60006001600160e01b03198216632483248360e11b14806103b457506103b482610ea4565b6000818152600260205260408120546001600160a01b0316806103b457604051637e27328960e01b8152600481018490526024016104aa565b61052f8383836001610ef4565b6000828152600260205260408120546001600160a01b039081169083161561082357610823818486610ffa565b6001600160a01b0381161561086157610840600085600080610ef4565b6001600160a01b038116600090815260036020526040902080546000190190555b6001600160a01b03851615610890576001600160a01b0385166000908152600360205260409020805460010190555b60008481526002602052604080822080546001600160a01b0319166001600160a01b0389811691821790925591518793918516917fddf252ad1be2c89b69c2b068fc378daa952ba7f163c4a11628f55a4df523b3ef91a4949350505050565b606060006108fc8361105e565b600101905060008167ffffffffffffffff81111561091c5761091c6113d6565b6040519080825280601f01601f191660200182016040528015610946576020820181803683370190505b5090508181016020015b600019016f181899199a1a9b1b9c1cb0b131b232b360811b600a86061a8153600a850494508461095057509392505050565b606081516000036109a157505060408051602081019091526000815290565b600060405180606001604052806040815260200161195260409139905060006003845160026109d0919061188a565b6109da919061189d565b6109e59060046118b1565b67ffffffffffffffff8111156109fd576109fd6113d6565b6040519080825280601f01601f191660200182016040528015610a27576020820181803683370190505b50905060018201602082018586518701602081018051600082525b82841015610a9d576003840193508351603f8160121c168701518653600186019550603f81600c1c168701518653600186019550603f8160061c168701518653600186019550603f8116870151865350600185019450610a42565b9052505085516003900660018114610abc5760028114610acf57610ad7565b603d6001830353603d6002830353610ad7565b603d60018303535b509195945050505050565b6000828152600660205260409020610afa82826117ca565b506040518281527ff8e1a15aba9398e019f0b49df1a4fde98ee17ae345cb5f6b5e2c27f5033e8ce79060200160405180910390a15050565b610480828260405180602001604052806000815250611136565b6007546001600160a01b031633146106cd5760405163118cdaa760e01b81523360048201526024016104aa565b600780546001600160a01b038381166001600160a01b0319831681179093556040519116919082907f8be0079c531659141344cd1fd0a4f28419497f9722a3daafe3b4186f6b6457e090600090a35050565b6001600160a01b038216610bfd57604051630b61174360e31b81526001600160a01b03831660048201526024016104aa565b6001600160a01b03838116600081815260056020908152604080832094871680845294825291829020805460ff191686151590811790915591519182527f17307eab39ab6107e8899845ad3d59bd9653f200f220920489ca2b5937696c31910160405180910390a3505050565b6001600160a01b0383163b1561050e57604051630a85bd0160e11b81526001600160a01b0384169063150b7a0290610cac9033908890879087906004016118c8565b6020604051808303816000875af1925050508015610ce7575060408051601f3d908101601f19168201909252610ce491810190611905565b60015b610d50573d808015610d15576040519150601f19603f3d011682016040523d82523d6000602084013e610d1a565b606091505b508051600003610d4857604051633250574960e11b81526001600160a01b03851660048201526024016104aa565b805181602001fd5b6001600160e01b03198116630a85bd0160e11b14610d8c57604051633250574960e11b81526001600160a01b03851660048201526024016104aa565b5050505050565b6060610d9e826107b0565b5060008281526006602052604081208054610db890611596565b80601f0160208091040260200160405190810160405280929190818152602001828054610de490611596565b8015610e315780601f10610e0657610100808354040283529160200191610e31565b820191906000526020600020905b815481529060010190602001808311610e1457829003601f168201915b505050505090506000610e4f60408051602081019091526000815290565b90508051600003610e61575092915050565b815115610e93578082604051602001610e7b929190611922565b60405160208183030381529060405292505050919050565b610e9c8461114d565b949350505050565b60006001600160e01b031982166380ac58cd60e01b1480610ed557506001600160e01b03198216635b5e139f60e01b145b806103b457506301ffc9a760e01b6001600160e01b03198316146103b4565b8080610f0857506001600160a01b03821615155b15610fca576000610f18846107b0565b90506001600160a01b03831615801590610f445750826001600160a01b0316816001600160a01b031614155b8015610f575750610f55818461071f565b155b15610f805760405163a9fbf51f60e01b81526001600160a01b03841660048201526024016104aa565b8115610fc85783856001600160a01b0316826001600160a01b03167f8c5be1e5ebec7d5bd14f71427d1e84f3dd0314c0f7b2291e5b200ac8c7c3b92560405160405180910390a45b505b5050600090815260046020526040902080546001600160a01b0319166001600160a01b0392909216919091179055565b6110058383836111c2565b61052f576001600160a01b03831661103357604051637e27328960e01b8152600481018290526024016104aa565b60405163177e802f60e01b81526001600160a01b0383166004820152602481018290526044016104aa565b60008072184f03e93ff9f4daa797ed6e38ed64bf6a1f0160401b831061109d5772184f03e93ff9f4daa797ed6e38ed64bf6a1f0160401b830492506040015b6d04ee2d6d415b85acef810000000083106110c9576d04ee2d6d415b85acef8100000000830492506020015b662386f26fc1000083106110e757662386f26fc10000830492506010015b6305f5e10083106110ff576305f5e100830492506008015b612710831061111357612710830492506004015b60648310611125576064830492506002015b600a83106103b45760010192915050565b6111408383611225565b61052f6000848484610c6a565b6060611158826107b0565b50600061117060408051602081019091526000815290565b9050600081511161119057604051806020016040528060008152506111bb565b8061119a846108ef565b6040516020016111ab929190611922565b6040516020818303038152906040525b9392505050565b60006001600160a01b03831615801590610e9c5750826001600160a01b0316846001600160a01b031614806111fc57506111fc848461071f565b80610e9c5750506000908152600460205260409020546001600160a01b03908116911614919050565b6001600160a01b03821661124f57604051633250574960e11b8152600060048201526024016104aa565b600061125d838360006107f6565b90506001600160a01b0381161561052f576040516339e3563760e11b8152600060048201526024016104aa565b6001600160e01b03198116811461078857600080fd5b6000602082840312156112b257600080fd5b81356111bb8161128a565b60005b838110156112d85781810151838201526020016112c0565b50506000910152565b600081518084526112f98160208601602086016112bd565b601f01601f19169290920160200192915050565b6020815260006111bb60208301846112e1565b60006020828403121561133257600080fd5b5035919050565b80356001600160a01b038116811461135057600080fd5b919050565b6000806040838503121561136857600080fd5b61137183611339565b946020939093013593505050565b60008060006060848603121561139457600080fd5b61139d84611339565b92506113ab60208501611339565b9150604084013590509250925092565b6000602082840312156113cd57600080fd5b6111bb82611339565b634e487b7160e01b600052604160045260246000fd5b600067ffffffffffffffff80841115611407576114076113d6565b604051601f8501601f19908116603f0116810190828211818310171561142f5761142f6113d6565b8160405280935085815286868601111561144857600080fd5b858560208301376000602087830101525050509392505050565b60006020828403121561147457600080fd5b813567ffffffffffffffff81111561148b57600080fd5b8201601f8101841361149c57600080fd5b610e9c848235602084016113ec565b600080604083850312156114be57600080fd5b6114c783611339565b9150602083013580151581146114dc57600080fd5b809150509250929050565b600080600080608085870312156114fd57600080fd5b61150685611339565b935061151460208601611339565b925060408501359150606085013567ffffffffffffffff81111561153757600080fd5b8501601f8101871361154857600080fd5b611557878235602084016113ec565b91505092959194509250565b6000806040838503121561157657600080fd5b61157f83611339565b915061158d60208401611339565b90509250929050565b600181811c908216806115aa57607f821691505b6020821081036115ca57634e487b7160e01b600052602260045260246000fd5b50919050565b634e487b7160e01b600052601160045260246000fd5b6000600182016115f8576115f86115d0565b5060010190565b634e487b7160e01b600052601260045260246000fd5b600082611624576116246115ff565b500690565b717b276e616d65273a20274661726d6f6e202360701b8152600084516020611658826012860160208a016112bd565b81840191507f272c20276465736372697074696f6e273a20274661726d6f6e204e4654272c2060128301526927696d616765273a202760b01b6032830152603c600087546116a581611596565b600182811680156116bd57600181146116d85761170a565b60ff198416603c890152603c8315158402890101945061170a565b8b600052602060002060005b848110156116ff5781548a82018901529083019088016116e4565b5050603c8389010194505b5050509681526c5f6661726d6f6e2e706e67277d60981b6020820152602d0198975050505050505050565b7f646174613a6170706c69636174696f6e2f6a736f6e3b6261736536342c00000081526000825161176d81601d8501602087016112bd565b91909101601d0192915050565b601f82111561052f576000816000526020600020601f850160051c810160208610156117a35750805b601f850160051c820191505b818110156117c2578281556001016117af565b505050505050565b815167ffffffffffffffff8111156117e4576117e46113d6565b6117f8816117f28454611596565b8461177a565b602080601f83116001811461182d57600084156118155750858301515b600019600386901b1c1916600185901b1785556117c2565b600085815260208120601f198616915b8281101561185c5788860151825594840194600190910190840161183d565b508582101561187a5787850151600019600388901b60f8161c191681555b5050505050600190811b01905550565b808201808211156103b4576103b46115d0565b6000826118ac576118ac6115ff565b500490565b80820281158282048414176103b4576103b46115d0565b6001600160a01b03858116825284166020820152604081018390526080606082018190526000906118fb908301846112e1565b9695505050505050565b60006020828403121561191757600080fd5b81516111bb8161128a565b600083516119348184602088016112bd565b8351908301906119488183602088016112bd565b0194935050505056fe4142434445464748494a4b4c4d4e4f505152535455565758595a6162636465666768696a6b6c6d6e6f707172737475767778797a303132333435363738392b2fa26469706673582212205d67b13b616754c4e51448699da87f30b8ee0139c354428a7902f0ec8daf36ea64736f6c63430008170033",
  "linkReferences": {},
  "deployedLinkReferences": {}
}